{
  "contractName": "SimpleLibrary",
  "abi": [
    {
      "constant": true,
      "inputs": [
        {
          "name": "self",
          "type": "uint256"
        }
      ],
      "name": "answer",
      "outputs": [
        {
          "name": "",
          "type": "uint256"
        }
      ],
      "payable": false,
      "stateMutability": "pure",
      "type": "function"
    }
  ],
  "bytecode": "0x60b0610025600b82828239805160001a60731461001857fe5b30600052607381538281f3fe730000000000000000000000000000000000000000301460806040526004361060335760003560e01c806306f70295146038575b600080fd5b606160048036036020811015604c57600080fd5b81019080803590602001909291905050506077565b6040518082815260200191505060405180910390f35b6000602a8201905091905056fea165627a7a72305820018c24cec66318d9e6f1b3a033f2813bce669db74522a02562d97195d00d54100029",
  "source": "pragma solidity ^0.5.0;\n\nlibrary SimpleLibrary {\n  function answer(uint256 self) public pure returns (uint256) {\n    return self + 42;\n  }\n}",
  "sourcePath": "/home/nlordell/Developer/Gnosis/ethcontract-rs/contracts/contracts/SimpleLibrary.sol",
  "compiler": {
    "name": "solc",
    "version": "0.5.8+commit.23d335f2.Emscripten.clang"
  },
  "schemaVersion": "3.0.16",
  "updatedAt": "2019-10-25T08:28:30.062Z",
  "devdoc": {
    "methods": {}
  },
  "userdoc": {
    "methods": {}
  }
}