{
  "contractName": "DocumentedContract",
  "abi": [
    {
      "constant": true,
      "inputs": [],
      "name": "owner",
      "outputs": [
        {
          "name": "",
          "type": "address"
        }
      ],
      "payable": false,
      "stateMutability": "view",
      "type": "function"
    },
    {
      "inputs": [
        {
          "name": "owner_",
          "type": "address"
        }
      ],
      "payable": false,
      "stateMutability": "nonpayable",
      "type": "constructor"
    },
    {
      "payable": false,
      "stateMutability": "nonpayable",
      "type": "fallback"
    },
    {
      "anonymous": false,
      "inputs": [
        {
          "indexed": true,
          "name": "from",
          "type": "address"
        },
        {
          "indexed": false,
          "name": "result",
          "type": "uint256"
        }
      ],
      "name": "Invoked",
      "type": "event"
    },
    {
      "constant": false,
      "inputs": [
        {
          "name": "value",
          "type": "uint256"
        },
        {
          "name": "condition",
          "type": "bool"
        }
      ],
      "name": "invoke",
      "outputs": [
        {
          "name": "",
          "type": "uint256"
        }
      ],
      "payable": false,
      "stateMutability": "nonpayable",
      "type": "function"
    }
  ],
  "bytecode": "0x608060405234801561001057600080fd5b506040516020806102738339810180604052602081101561003057600080fd5b8101908080519060200190929190505050806000806101000a81548173ffffffffffffffffffffffffffffffffffffffff021916908373ffffffffffffffffffffffffffffffffffffffff160217905550506101e2806100916000396000f3fe608060405234801561001057600080fd5b50600436106100365760003560e01c80638da5cb5b14610038578063fffbcea114610082575b005b6100406100d0565b604051808273ffffffffffffffffffffffffffffffffffffffff1673ffffffffffffffffffffffffffffffffffffffff16815260200191505060405180910390f35b6100ba6004803603604081101561009857600080fd5b81019080803590602001909291908035151590602001909291905050506100f5565b6040518082815260200191505060405180910390f35b6000809054906101000a900473ffffffffffffffffffffffffffffffffffffffff1681565b6000806000905082801561015557506000809054906101000a900473ffffffffffffffffffffffffffffffffffffffff1673ffffffffffffffffffffffffffffffffffffffff163373ffffffffffffffffffffffffffffffffffffffff16145b1561015e578390505b3373ffffffffffffffffffffffffffffffffffffffff167f920620ea9e5a7eec70964ffb2c87e348e1707bb0529e82bb10dd7d8cbb9686a8856040518082815260200191505060405180910390a2809150509291505056fea165627a7a72305820a2ffd7178b621dd574dfbfd8d89bf94747f5bde22c71b6db484f6eecf08ffa980029",
  "source": "pragma solidity ^0.5.0;\n\n/**\n * @dev Simple contract with lots of documentation\n *\n * This contract does nothing besides add a bunch of documentation to everything.\n */\ncontract DocumentedContract {\n  /*\n   * @dev The owner of this documented contract\n   */\n  address public owner;\n\n  /*\n   * @dev Creates a new owned instance of `DocumentedContract`.\n   */\n  constructor(address owner_) public {\n    owner = owner_;\n  }\n\n  /*\n   * @dev Documented fallback function that does nothing.\n   */\n  function () external { }\n\n  /*\n   * @dev Documented function that emits an event.\n   *\n   * Emits a {Invoked} event.\n   */\n  function invoke(uint256 value, bool condition) public returns (uint256) {\n    uint256 result = 0;\n    if (condition && msg.sender == owner) {\n      result = value;\n    }\n    emit Invoked(msg.sender, value);\n\n    return result;\n  }\n\n  /*\n   * @dev Event emitted when the contract is invoked.\n   */\n  event Invoked(address indexed from, uint256 result);\n}\n",
  "sourcePath": "/home/nlordell/Developer/Gnosis/ethcontract-rs/contracts/contracts/DocumentedContract.sol",
  "compiler": {
    "name": "solc",
    "version": "0.5.8+commit.23d335f2.Emscripten.clang"
  },
  "schemaVersion": "3.0.16",
  "updatedAt": "2019-10-25T09:47:36.900Z",
  "devdoc": {
    "details": "Simple contract with lots of documentation * This contract does nothing besides add a bunch of documentation to everything.",
    "methods": {}
  },
  "userdoc": {
    "methods": {}
  }
}