{
  "contractName": "LinkedContract",
  "abi": [
    {
      "constant": true,
      "inputs": [],
      "name": "callAnswer",
      "outputs": [
        {
          "internalType": "uint256",
          "name": "",
          "type": "uint256"
        }
      ],
      "payable": false,
      "stateMutability": "pure",
      "type": "function"
    }
  ],
  "bytecode": "0x608060405234801561001057600080fd5b5061010e806100206000396000f3fe6080604052348015600f57600080fd5b506004361060285760003560e01c8063bfa1efae14602d575b600080fd5b60336049565b6040518082815260200191505060405180910390f35b60008073__SimpleLibrary_________________________6306f7029590916040518263ffffffff1660e01b81526004018082815260200191505060206040518083038186803b158015609b57600080fd5b505af415801560ae573d6000803e3d6000fd5b505050506040513d602081101560c357600080fd5b810190808051906020019092919050505090509056fea265627a7a72315820a1fae7e19fa5469fab816bf1015ae1d531f22315d62254b45c7a59a254a0d9d264736f6c634300050c0032",
  "deployedBytecode": "0x6080604052348015600f57600080fd5b506004361060285760003560e01c8063bfa1efae14602d575b600080fd5b60336049565b6040518082815260200191505060405180910390f35b60008073__SimpleLibrary_________________________6306f7029590916040518263ffffffff1660e01b81526004018082815260200191505060206040518083038186803b158015609b57600080fd5b505af415801560ae573d6000803e3d6000fd5b505050506040513d602081101560c357600080fd5b810190808051906020019092919050505090509056fea265627a7a72315820a1fae7e19fa5469fab816bf1015ae1d531f22315d62254b45c7a59a254a0d9d264736f6c634300050c0032",
  "source": "pragma solidity ^0.5.0;\n\nimport \"./SimpleLibrary.sol\";\n\ncontract LinkedContract {\n  using SimpleLibrary for uint256;\n  \n  function callAnswer() public pure returns (uint256) {\n    return uint256(0).answer();\n  }\n}",
  "sourcePath": "/home/nlordell/Developer/Gnosis/ethcontract-rs/examples/truffle/contracts/LinkedContract.sol",
  "compiler": {
    "name": "solc",
    "version": "0.5.12+commit.7709ece9.Emscripten.clang"
  },
  "schemaVersion": "3.0.19",
  "devdoc": {
    "methods": {}
  },
  "userdoc": {
    "methods": {}
  }
}