{
  "contractName": "SimpleLibrary",
  "abi": [
    {
      "constant": true,
      "inputs": [
        {
          "internalType": "uint256",
          "name": "self",
          "type": "uint256"
        }
      ],
      "name": "answer",
      "outputs": [
        {
          "internalType": "uint256",
          "name": "",
          "type": "uint256"
        }
      ],
      "payable": false,
      "stateMutability": "pure",
      "type": "function"
    }
  ],
  "bytecode": "0x60b9610025600b82828239805160001a60731461001857fe5b30600052607381538281f3fe730000000000000000000000000000000000000000301460806040526004361060335760003560e01c806306f70295146038575b600080fd5b606160048036036020811015604c57600080fd5b81019080803590602001909291905050506077565b6040518082815260200191505060405180910390f35b6000602a8201905091905056fea265627a7a72315820000000000000000000000000000000000000000000000000000000000000000064736f6c634300050c0032",
  "source": "pragma solidity ^0.5.0;\n\nlibrary SimpleLibrary {\n  function answer(uint256 self) public pure returns (uint256) {\n    return self + 42;\n  }\n}",
  "sourcePath": "./contracts/SimpleLibrary.sol",
  "compiler": {
    "name": "solc",
    "version": "0.5.12+commit.7709ece9.Emscripten.clang"
  },
  "schemaVersion": "3.0.19",
  "devdoc": {
    "methods": {}
  },
  "userdoc": {
    "methods": {}
  }
}